:100000000C9434000C9451000C9451000C94BA00E0
:100010000C9451000C9492000C9451000C945100DB
:100020000C9451000C9451000C9451000C948000DD
:100030000C9451000C9451000C9451000C945100FC
:100040000C9451000C9451000C9451000C945100EC
:100050000C9451000C9451000C9451000C945100DC
:100060000C9451000C94510011241FBECFEFD8E026
:10007000DEBFCDBF11E0A0E0B1E0E2E5F4E002C0F8
:1000800005900D92A636B107D9F721E0A6E6B1E0BA
:1000900001C01D92A836B207E1F70E94A0010C949E
:1000A00027020C940000F894009711F01A9B07C0E7
:1000B00080918100887F809381002C981FC01092CE
:1000C00080002BE0209381009C01220F331F40E031
:1000D00050E060E970ED83E090E00E94050221505D
:1000E0003109309389002093880010928500109286
:1000F000840080916F00826080936F0078940895EF
:100100001F920F920FB60F9211248F939F9395B168
:1001100080E1892785B99F918F910F900FBE0F9035
:100120001F9018951F920F920FB60F9211242F93C4
:100130003F938F939F9380E090E029B130E0082EA9
:1001400002C0359527950A94E2F720FD06C08093FA
:10015000000181E08093670104C001968830910519
:1001600061F79F918F913F912F910F900FBE0F904C
:100170001F9018951F920F920FB60F9211248F9314
:10018000189902C088E007C0199902C089E003C02D
:100190001D9906C084E08093000181E0809367018F
:1001A0008F910F900FBE0F901F9018951AB88FEF78
:1001B0008BB9249A2C9884B18C7D84B985B18362E3
:1001C00085B9229825982D9A87B1836087B988B11F
:1001D0008C7F88B90895E8E6F0E0808185608083AF
:1001E000EDE6F0E080818FEF8083EBE6F0E0808148
:1001F0008362808378940895CF93C82F419A1A9987
:100200002DC080E293E00E9453008FE493EC0197AD
:10021000F1F700C0000080E991E00E9453009FE8E0
:100220002FE581E0915020408040E1F700C00000C0
:1002300080E090E00E94530081E090E028EF2C0FD6
:10024000AC0102C0440F551F2A95E2F79C010C2E09
:1002500002C0220F331F0A94E2F712C09FE926E87A
:1002600081E0915020408040E1F700C00000E4CFE1
:100270001D9915C083EC99E00197F1F700C00000CB
:10028000C83038F4C430A1F389B190E082239323BD
:1002900004C083B190E084239523892B59F39FE90F
:1002A00026E881E0915020408040E1F700C0000046
:1002B0004198CF9108950F931F93CF93C82F409AE1
:1002C000082F10E01A9909C0F801EE0FFF1FEF5A2E
:1002D000FE4F808191810E9453000850110981E0F6
:1002E00090E0AC0102C0440F551F0A95E2F79C0153
:1002F0000C2E02C0220F331F0A94E2F7C83050F4CC
:10030000C43029F089B190E08223932307C01D9B5C
:1003100007C00DC083B190E084239523892B39F465
:1003200083EC99E00197F1F700C00000E7CF80E08F
:1003300090E00E9453004098CF911F910F91089533
:100340000E94D6000E94EB00789411E0C0E5D0E056
:10035000809167018823E1F3F89480910001109265
:1003600067017894E7E8F3E13197F1F700C0000006
:10037000843031F423B125FB222720F9212716C030
:10038000883048F429B130E0082E02C03595279511
:100390000A94E2F709C023B130E098EF980F02C049
:1003A000359527959A95E2F720952170222381F2C1
:1003B000E0916601F0E0EF5FFE4F908189130CC081
:1003C0000E945B018091660190E00196BE010E944F
:1003D000F10180936601BCCF0E94FC00109266017F
:1003E000B7CFAA1BBB1B51E107C0AA1FBB1FA61793
:1003F000B70710F0A61BB70B881F991F5A95A9F7CE
:1004000080959095BC01CD010895A1E21A2EAA1BFA
:10041000BB1BFD010DC0AA1FBB1FEE1FFF1FA217B4
:10042000B307E407F50720F0A21BB30BE40BF50BB1
:10043000661F771F881F991F1A9469F7609570953A
:10044000809590959B01AC01BD01CF010895F89472
:02045000FFCFDC
:100452000A03010401050902060503050809070943
:100462000302030804060206040303080302070941
:100472000500020808040109070106090309090326
:10048200070501000508020009070409040405091B
:10049200020300070801060400060208060200081B
:1004A200090B024B029302BA0210037003A4031653
:0604B20004970427050079
:00000001FF
